:060000000A128A11122809
:10000800FE00030EF6000408F7000A08F800831241
:1000180003137F08F9000A128A115B2A0A128A114F
:100028001528F001F101F201F301F40183132030E6
:1000380084003E300A128A11B7230A128A116630E8
:10004800FD000330FE00A830FF00573084000A127C
:100058008A119B2383010A128A1132280A128A11F3
:10006800A4220A128A11003083120313BE00BF00B3
:100078000A128A11EC220A128A11FF308312031322
:100088008600871210308500831603138717071719
:10009800F301083073020318692804300A128A1120
:1000A8004E230A128A117008831203133E07F000C8
:1000B80071080318710A3F07F1000130D300530893
:1000C800F30708307302031C512871088312D40007
:1000D8007008D30007300310D40CD30CFF3E031D67
:1000E8006F285308BE005408BF000530C000003018
:1000F800C1000A128A1174230A128A118312031387
:100108003E08963EF0003F080318013E003EF1000D
:1001180036087106031D92283508700603199C28B5
:10012800C830D3005308F2007108B6007008B50053
:10013800F301083073020318B92803300A128A1130
:100148004E230A128A11831203132F083E07AF00A9
:1001580030080318300A3F07B0000130D3005308B5
:10016800F30708307302031CA1283008D4002F08B5
:10017800D3000310D40CD30C0310D40CD30C0310ED
:10018800D40CD30C5308453EBE0054080318013E56
:10019800FF3EBF006430C0000030C1000A128A115F
:1001A80074230A128A11831203133E08D5003F08EC
:1001B800D60006300310D60CD50CFF3E031DDE28F2
:1001C8005508AF005608B00072080319F2287108E4
:1001D800D0007008CF00D101D10AF9288312031387
:1001E8003008D0002F08CF00D1010A128A112C2123
:1001F8000A128A117108831203133002031D06299B
:1002080070082F0203180C29FF30BE000330102994
:10021800003083120313BE00BF000A128A11EC22B9
:100228000A128A11033083120313D5008A30D400CE
:100238005630D300D30B1E29D40B1E29D50B1E29EB
:100248002529F001F10183120313AF01B0014C28F5
:10025800831203135108031D72295008C8004F0860
:10026800C7006430C9000030CA000A128A111F236F
:100278000A128A11831203134A08AB004908AA001C
:100288004808A9004708A8002A08D2005208A30075
:100298002908D0002808CF005008C8004F08C70018
:1002A8000A30C9000030CA000A128A111F238312BB
:1002B80003134A08AB004908AA004808A9004708E0
:1002C800A8002A08D2005208A2002808D200520822
:1002D800A1000D30D2005208A00008005008C80044
:1002E8004F08C7006430C9000030CA000A128A11DA
:1002F8001F230A128A11831203134A08AB00490804
:10030800AA004808A9004708A8002A08D2005208ED
:10031800A2002908D0002808CF005008C8004F08BC
:10032800C7000A30C9000030CA000A128A111F2308
:10033800831203134A08AB004908AA004808A90019
:100348004708A8002A08D2005208A1002808D200AD
:100358005208A0000E30D2005208A30008008312F1
:100368000313C401BF1FBF29BE09BF09BE0A031971
:10037800BF0AC401C40AC11FCA29C009C109C00AE9
:100388000319C10A0130C2004208C406C501C601EA
:100398003E083F040319012AC301C30ABF1BE02911
:1003A80001300310BE0DBF0DFF3E031DD5290130DE
:1003B800C2004208C307D22901300310C50DC60D7B
:1003C800FF3E031DE1293F084102031DED293E08B8
:1003D8004002031CF6293E08C0023F08031CC10363
:1003E800C102451401300310BF0CBE0CFF3E031DB3
:1003F800F7290130C302031DE02944080319092A1B
:10040800C509C609C50A0319C60A4608BF00450832
:10041800BE00080083120313C401C11F1A2AC009B1
:10042800C109C00A0319C10AC401C40ABF1F212A8D
:10043800BE09BF09BE0A0319BF0A3E083F040319D3
:100448004E2AC301C30ABF1B352A01300310BE0D53
:10045800BF0DFF3E031D2A2A0130C2004208C30710
:10046800272A3F084102031D3B2A3E084002031C7D
:10047800432A3E08C0023F08031CC103C1020130E1
:100488000310BF0CBE0CFF3E031D442A0130C302FB
:10049800031D352A44080319562AC009C109C00A90
:1004A8000319C10A4108BF004008BE0008008B1AA2
:1004B8000B1D992A0B11103085007408203E84000A
:1004C80083130008573E8400000886000330740236
:1004D8000318822A0130F500740A742A0310F50DF6
:1004E800FF3E031D722A750885001030F500F50BD4
:1004F8007B2A00008312031387128C2A8716103078
:10050800F500F50B852A00001030831203138500CF
:100518000130F5007508F407043074060319F40176
:1005280072080319992A0130F2027908FF00780845
:100538008A0077088400760E8300FE0E7E0E09007E
:10054800283083160313850001308600C3308700E6
:10055800831203131F083F3980389F008316031343
:100568001F17831203131F08C73918389F001F1459
:10057800831603139F17F0309F0583120313170880
:10058800F0390C389700FF3083160313920083125A
:10059800031395019712171212158316031381126C
:1005A80081110108F839063881008312031381018B
:1005B8008B16CF30900590159014101580308F0051
:1005C8001010831603130C108B170B170C1308004D
:1005D800831203133F08C1003E08C0000310C10C7A
:1005E800C00C0310C10CC00C40089500C2013E08A5
:1005F8003F040319012BC201C20A4208C00001309E
:100608000310C00CFF3E031D042B401C0F2B83124C
:1006180003139716122B831203139712C3013E0874
:100628003F040319192BC301C30A4308031D1716F6
:10063800031917120800831203134A08BF00490858
:10064800BE004808C1004708C0000A128A11B32139
:100658000A128A11831203133F08CE003E08CD0008
:100668004A08BF004908BE004808C1004708C00042
:100678000A128A110E22831203133F08CC003E0887
:10068800CB004E08CA004D08C9004C08C8004B08EA
:10069800C700080083120313C1008B134108C00070
:1006A800C00DC00DC00D1F084006C73940069F0089
:1006B8003130C000C00B5E2B612B831203131F1552
:1006C8001F19642B1E08B800831603131E08831213
:1006D8000313B7008B173808BF003708BE0008009F
:1006E80083120313C201C3013E1C802B4008C207BA
:1006F8000318C30A4108C30701300310C00DC10D18
:10070800FF3E031D812B01300310BF0CBE0CFF3EC2
:10071800031D882B3E083F04031D782B4308BF00A8
:100728004208BE0008007E088A007F0882009723DE
:100738000A128A118000840A04087D06031900340D
:10074800FF0A0319FE0A9B2B80349E3424340C3490
:100758001A34483440349C34003408347E346034CD
:10076800123438346E3464008001840A0406031994
:0607780000340406B82B5A
:02400E003AFF77
:00000001FF
