:040000008A11112828
:10000800FE00030E83120313A3000408A4000A08C9
:10001800A5007F08A6008A11AA2A8A11132883132B
:10002800413084005E308A1129258A116D30FD0027
:100038000530FE001A30FF005E3084008A11FE246D
:1000480083018A1127288A11C6238A110030831256
:100058000313A700A8008A1151248A11FF308312C4
:10006800031386008712103085002C30CD00013034
:10007800CE00D801083058020318582804308A11D5
:10008800B0248A118312031355082707D500560890
:100098000318560A2807D6000130BE003E08D807C4
:1000A80008305802031C42285608BF005508BE00F5
:1000B80006300310BF0CBE0CFF3E031D5D283E0832
:1000C800A7003F08A8000530A9000030AA008A113F
:1000D800D7248A11831203132808D6002708D500CD
:1000E80054085606031D7A28530855060319842810
:1000F8006430BE003E08D7005608D4005508D30027
:100108005608B5005508B4008A1152218A11031007
:1001180083120313061C0314003003180130DA009D
:100128005A080319B4285C08BE00BF013E08A7009E
:100138003F08A8006430A9000030AA008A11D7241B
:100148008A118312031359082707B80000300318CF
:1001580001302807B9000230C0004008BA00C7289B
:100168008312031357080319C0285608B900550805
:10017800B800BA01BA0AC728831203135008B90095
:100188004F08B800BA018A1101228A118312031399
:10019800871F4D29013083120313BE003E08DC0778
:1001A80019305C060319DC010030A700A8008A1189
:1001B80051248A11831203135C08BE00BF013E0854
:1001C800A7003F08A8006430A9000030AA008A11DF
:1001D800D7248A118312031359082707B80000305F
:1001E800031801302807B9000230C0004008BA00DF
:1001F8008A1101228A11063083120313C0001330BA
:10020800BF00B130BE00BE0B0729BF0B0729C00BCA
:1002180007290E29CA280130BE003E08D9073C30FC
:1002280059060319D9010030A700A8008A115124E2
:100238008A11831203135C08BE00BF013E08A700A1
:100248003F08A8006430A9000030AA008A11D7240A
:100258008A118312031359082707B80000300318BE
:1002680001302807B9000230C0004008BA008A11DE
:1002780001228A11063083120313C0001330BF0015
:10028800B130BE00BE0B4629BF0B4629C00B46291C
:100298004D2983120313071F3D280F2900308312AD
:1002A8000313BD000030BC000030BB000030BA00B2
:1002B800D801083058020318772903308A11B0246E
:1002C8008A11831203134F082707CF005008031819
:1002D800500A2807D0000130B6003608D807083081
:1002E8005802031C61295008B7004F08B6000310D4
:1002F800B70CB60C0310B70CB60C0310B70CB60C41
:100308003608603EA70037080318013EFF3EA800E4
:100318006430A9000030AA008A11D7248A118312F8
:1003280003132708B8002808B90006300310B90CD1
:10033800B80CFF3E031D9A293808CF003908D000B1
:1003480035085002031DAA2934084F020318F92959
:100358004F09B6005009B700B60A0319B70A34089E
:100368003607D10035080318350A3707D2004D087B
:10037800A7004E08A800A901AA015108AB0052081D
:10038800AC000030AC1BFF30AD00AE008A11102469
:100398008A11831203132A08BD002908BC00280803
:1003A800BB002708BA00BD1BF0293D08031DE92939
:1003B8003C08031DE92904303B02031DE7290030EE
:1003C8003A02031DE729031CF029FF30A700033078
:1003D800A8008A1151240800831203133B08A800BF
:1003E8003A08A7008A115124080000308312031329
:1003F800A700A8008A11512408008B128312031346
:100408003809BB003909BC00BB0A0319BC0A5508E6
:100418003B07A70056080318560A3C07A8008A118C
:100428000A258A11831203132808803AFF008030B6
:100438007F02031D212A033027020318292A831269
:1004480003135608B9005508B80083120313390876
:10045800B1003808B0006430B2000030B3008A112F
:1004680084248A11831203133308CC003208CB008A
:100478003108CA003008C9004B08BB003B08C3005C
:100488004A08B9004908B8003908B1003808B0006E
:100498000A30B2000030B3008A1184248A11831212
:1004A80003133308CC003208CB003108CA003008E7
:1004B800C9004B08BB003B08C2004908BB003B0809
:1004C800C1009D2A4308BB003B08C4004208BB008A
:1004D8003B08C3004108BB003B08C2000D30BB000D
:1004E8003B08C100A82A0E30BB003B08C400A82A5C
:1004F8004308BB00BC013B08B0003C08B1000A300F
:10050800B2000030B3008A1184248A1183120313C5
:100518003308CC003208CB003108CA003008C900C3
:100528004B08BB003B08C4004908BB003B08C3009C
:10053800A82A3A08003A0319662A013A0319772AC1
:10054800033A03197C2AA82A8B1608008B1A0B1D5C
:10055800EC2A0B11103085005D08413E840083139E
:1005680000085E3E84000008860003305D02031820
:10057800DC2A01305B05A0005A08031DC52A01309A
:10058800C62A00302004A10004300310A10DFF3E4C
:10059800031DC92A0130A2005D0AD42A0310A20D46
:1005A800FF3E031DD22A2208210485008712DF2A74
:1005B8001030850087160130A0002008DD070430C0
:1005C8005D060319DD0157080319EC2A0130D7022B
:1005D800831603130C1C122B831203130C1C122BEF
:1005E8000C100130A0002008DB073C305B06031D1F
:1005F8000F2BDB010130A0002008D9073C30590639
:10060800031D0F2BD9010130A0002008DC0718308A
:100618005C060319DC0180308F008E0183122608E6
:10062800FF0025088A0024088400230E8300FE0E9C
:100638007E0E090083120313AD01A81F2A2BA709F8
:10064800A809A70A0319A80AAD01AD0AAA1F352BE4
:10065800A909AA09A90A0319AA0A0130AB002B089B
:10066800AD06AE01AF012708280403196C2BAC01B5
:10067800AC0AA81B4B2B01300310A70DA80DFF3E99
:10068800031D402B0130AB002B08AC073D2B01307C
:100698000310AE0DAF0DFF3E031D4C2B28082A0298
:1006A800031D582B27082902031C612B2708A902C0
:1006B8002808031CAA03AA022E1401300310A80C50
:1006C800A70CFF3E031D622B0130AC02031D4B2B10
:1006D8002D080319742BAE09AF09AE0A0319AF0A26
:1006E8002F08A8002E08A700080083120313AD01E5
:1006F800AA1F852BA909AA09A90A0319AA0AAD01E3
:10070800AD0AA81F8C2BA709A809A70A0319A80ACC
:10071800270828040319B92BAC01AC0AA81BA02B85
:1007280001300310A70DA80DFF3E031D952B0130C6
:10073800AB002B08AC07922B28082A02031DA62B16
:1007480027082902031CAE2B2708A9022808031C26
:10075800AA03AA0201300310A80CA70CFF3E031D30
:10076800AF2B0130AC02031DA02B2D080319C12BA0
:10077800A909AA09A90A0319AA0A2A08A80029087E
:10078800A70008002830831603138500013086006F
:10079800C3308700831203131F083F3980389F0036
:1007A800831603131F17831203131F08C73918383A
:1007B8009F001F14831603139F17F0309F058312A1
:1007C80003131708F0390C389700FF30831603130A
:1007D80092008312031395019712171212158316AC
:1007E8000313811281110108F83906388100831238
:1007F800031381018B16CF309005901590141015B6
:1008080080308F001014831603130C148B170B17EA
:100818000C1301130B120800003083120313B300EA
:100828000030B2000030B1000030B000271C302C7E
:100838002B08B0072C0803110318013E031DB1074C
:100848002D0803110318013E031DB2072E080311DA
:100858000318013E031DB3070130AF000310AB0DB1
:10086800AC0DAD0DAE0DAF0B322C01300310AA0C40
:10087800A90CA80CA70CFF3E031D3A2C2A08290432
:1008880028042704031D1A2C3308AA003208A900DB
:100898003108A8003008A7000800831203132808AD
:1008A800AA002708A9000310AA0CA90C0310AA0C77
:1008B800A90C29089500AB01270828040319662C00
:1008C800AB01AB0A2B08A90001300310A90CFF3EAD
:1008D800031D692C291C742C831203139716772C7B
:1008E800831203139712AC012708280403197E2CDE
:1008F800AC01AC0A2C08031D1716031917120800BF
:10090800831203133308A8003208A7003108AA008D
:100918003008A9008A111E238A118312031328089C
:10092800B7002708B6003308A8003208A700310826
:10093800AA003008A9008A11792383120313280812
:10094800B5002708B4003708B3003608B2003508E8
:10095800B1003408B000080083120313AA00AB01E9
:10096800AC018B132A08A900A90DA90DA90D1F0810
:100978002906C73929069F002130A900A90BC22CD6
:10098800831203131F151F19C72C1E08AC008316EA
:1009980003131E0883120313AB008B172C08A8003F
:1009A8002B08A700080083120313AB01AC01271C16
:1009B800E32C2908AB070318AC0A2A08AC07013056
:1009C8000310A90DAA0DFF3E031DE42C01300310EE
:1009D800A80CA70CFF3E031DEB2C27082804031DB9
:1009E800DB2C2C08A8002B08A70008007E088A002A
:1009F8007F088200FA248A118000840A04087D0690
:100A080003190034FF0A0319FE0AFE2C831203138C
:100A1800A81F08002709A9002809AA00A90A03197C
:100A2800AA0A2908A7002A08A800080080349E34CA
:100A380024340C341A34483440349C340034083498
:100A48007E346034123438346E3464008001840A91
:0A0A580004060319003404062A2DD9
:02400E003AFF77
:00000001FF
