:060000000A128A11122809
:10000800FE00030EF3000408F4000A08F50083124A
:1000180003137F08F6000A128A11A8290A128A1106
:100028001528F701F801F901FA01FB01FC01831316
:10003800203084003E300A128A11E4240A128A1100
:100048006630FD000430FE00D530FF0057308400D4
:100058000A128A11C82483010A128A1133280A1243
:100068008A11CF230A128A11003083120313BE00AB
:10007800BF000A128A1119240A128A11FF3083124A
:100088000313860087121030850083160313871721
:10009800071783120313BD01BB0183120313BA01AF
:1000A80008303A020318702804300A128A117B2497
:1000B8000A128A118312031335083E07B500360861
:1000C8000318360A3F07B6000130D4005408BA07AF
:1000D80008303A02031C58283608D5003508D400E1
:1000E80007300310D50CD40CFF3E031D75285408A7
:1000F800BE005508BF000530C0000030C1000A121C
:100108008A11A1240A128A11831203133F08B60028
:100118003E08B50034083606031D94283308350612
:1001280003199E28C830D4005408B9003608B40012
:100138003508B3000310061C0314003003180130FF
:10014800BC003C080319E02800303602C930031906
:100158003502031CB428C830C4000030C500BA28D2
:10016800831203133608C5003508C4000A128A1121
:10017800C0220A128A11831203133D08D400D50144
:100188005408BE005508BF006430C0000030C100EC
:100198000A128A11A1240A128A11831203133B0836
:1001A8003E07CF000030031801303F07D00002306F
:1001B800D6005608D100FE28831203133608C5005E
:1001C8003508C4000A128A11C0220A128A11831241
:1001D800031339080319F7283608D0003508CF006B
:1001E800D101D10AFE28831203133008D0002F084A
:1001F800CF00D1010A128A113C220A128A118312F5
:100208000313B501B601AF01B00183120313871FB1
:1002180096290130D4005408BD0719303D0603194A
:10022800BD010030BE00BF000A128A1119240A124B
:100238008A11831203133D08D400D5015408BE0067
:100248005508BF006430C0000030C1000A128A118E
:10025800A1240A128A11831203133B083E07CF0018
:100268000030031801303F07D0000230D60056088E
:10027800D1000A128A113C220A128A110D30831207
:100288000313D600AF30D500C130D400D40B4A29AF
:10029800D50B4A29D60B4A29000009290130D40078
:1002A8005408BB073D303B060319BB010030BE00B4
:1002B800BF000A128A1119240A128A118312031321
:1002C8003D08D400D5015408BE005508BF0064306D
:1002D800C0000030C1000A128A11A1240A128A1132
:1002E800831203133B083E07CF0000300318013088
:1002F8003F07D0000230D6005608D1000A128A11F2
:100308003C220A128A110D3083120313D600AF3033
:10031800D500C130D400D40B8F29D50B8F29D60B2B
:100328008F29000083120313071B52290230D600BD
:10033800C730D5008830D400D40BA029D50BA0290C
:10034800D60BA029000051288B1A0B1D0A2A0B1165
:10035800103085007C08203E840083130008573E37
:1003680084000008860003307C020318E12901306C
:100378007A05F0003C08031DC3290130C429003068
:100388007004F10004300310F10DFF3E031DC7296E
:100398000130F2007C0AD2290310F20DFF3E031D42
:1003A800D0297208710485001030F000F00BDA29AA
:1003B8000000831203138712FD2987161030F000FE
:1003C800F00BE429000001307A05F00083120313D2
:1003D8003C08031DF1290130F22900307004F100B6
:1003E80003300310F10DFF3E031DF5290310710DB5
:1003F80085000130F0007008FC0704307C06031902
:10040800FC01390803190A2A0130B90283160313BB
:100418000C1C302A831203130C1C302A0C100130D8
:10042800F0007008FA073C307A06031D2D2AFA01FD
:100438000130F0007008BB073C303B06031D2D2A35
:10044800BB010130F0007008BD0718303D060319E4
:10045800BD0180308F008E0176088312FF00750879
:100468008A0074088400730E8300FE0E7E0E090055
:10047800831203135008C8004F08C7006430C9002E
:100488000030CA000A128A114C240A128A118312F7
:1004980003134A08AB004908AA004808A9004708FE
:1004A800A8002A08D2005208A2002908D00028086B
:1004B800CF005008C8004F08C7000A30C9000030F4
:1004C800CA000A128A114C240A128A1183120313D1
:1004D8004A08AB004908AA004808A9004708A8002C
:1004E8002A08D2005208A1002808D2005208A00009
:1004F800B42A2208D2005208A3002108D2005208C8
:10050800A2002008D2005208A1000D30D2005208E3
:10051800A00008000E30D2005208A30008002208EC
:10052800D200D3015208C7005308C8000A30C900D6
:100538000030CA000A128A114C24831203134A0895
:10054800AB004908AA004808A9004708A8002A08DB
:10055800D2005208A3002808D2005208A2000800BE
:100568005108003A03197D2A013A03198E2A033AE1
:100578000319932ABF2A080083120313BA0108300B
:100588003A020318DF2A03300A128A117B240A125E
:100598008A11831203132F083E07AF00300803188F
:1005A800300A3F07B0000130C6004608BA070830D5
:1005B8003A02031CC72A3008C7002F08C6000310D8
:1005C800C70CC60C0310C70CC60C0310C70CC60C0E
:1005D8004608453EBE0047080318013EFF3EBF00DF
:1005E8006430C0000030C1000A128A11A1240A1226
:1005F8008A11831203133E08C8003F08C900063059
:100608000310C90CC80CFF3E031D042B4808AF009B
:100618004908B00045083002031D142B44082F0276
:1006280003181E2BFF30BE000330BF000A128A11C8
:1006380019240800003083120313BE00BF000A12F9
:100648008A111924080083120313C401BF1F332B16
:10065800BE09BF09BE0A0319BF0AC401C40AC11FE3
:100668003E2BC009C109C00A0319C10A0130C200E2
:100678004208C406C501C6013E083F040319752B8C
:10068800C301C30ABF1B542B01300310BE0DBF0D9D
:10069800FF3E031D492B0130C2004208C307462B09
:1006A80001300310C50DC60DFF3E031D552B3F0835
:1006B8004102031D612B3E084002031C6A2B3E08C1
:1006C800C0023F08031CC103C102451401300310D6
:1006D800BF0CBE0CFF3E031D6B2B0130C302031D74
:1006E800542B440803197D2BC509C609C50A0319EB
:1006F800C60A4608BF004508BE0008008312031357
:10070800C401C11F8E2BC009C109C00A0319C10A3F
:10071800C401C40ABF1F952BBE09BF09BE0A03192D
:10072800BF0A3E083F040319C22BC301C30ABF1BFB
:10073800A92B01300310BE0DBF0DFF3E031D9E2BDC
:100748000130C2004208C3079B2B3F084102031D2A
:10075800AF2B3E084002031CB72B3E08C0023F08DF
:10076800031CC103C10201300310BF0CBE0CFF3EC5
:10077800031DB82B0130C302031DA92B440803191C
:10078800CA2BC009C109C00A0319C10A4108BF0020
:100798004008BE0008002830831603138500013086
:1007A8008600C3308700831203131F083F3980383F
:1007B8009F00831603131F17831203131F08C739DB
:1007C80018389F001F14831603139F17F0309F05D6
:1007D800831203131708F0390C389700FF3083167B
:1007E800031392008312031395019712171212151F
:1007F80083160313811281110108F8390638810024
:100808008312031381018B16CF3090059015901435
:10081800101580308F001014831603130C148B17D7
:100828000B170C1301130B120800831203133F0854
:10083800C1003E08C0000310C10CC00C0310C10C5D
:10084800C00C40089500C2013E083F0403192E2C35
:10085800C201C20A4208C00001300310C00CFF3EAA
:10086800031D312C401C3C2C8312031397163F2C7C
:10087800831203139712C3013E083F040319462C41
:10088800C301C30A4308031D1716031917120800EA
:10089800831203134A08BF004908BE004808C10074
:1008A8004708C0000A128A1127230A128A118312E4
:1008B80003133F08CE003E08CD004A08BF00490890
:1008C800BE004808C1004708C0000A128A118223E6
:1008D800831203133F08CC003E08CB004E08CA0021
:1008E8004D08C9004C08C8004B08C700080083120F
:1008F8000313C1008B134108C000C00DC00DC00D0B
:100908001F084006C73940069F003130C000C00BA1
:100918008B2C8E2C831203131F151F19912C1E0864
:10092800B800831603131E0883120313B7008B172E
:100938003808BF003708BE00080083120313C2013D
:10094800C3013E1CAD2C4008C2070318C30A410866
:10095800C30701300310C00DC10DFF3E031DAE2CAF
:1009680001300310BF0CBE0CFF3E031DB52C3E0822
:100978003F04031DA52C4308BF004208BE00080021
:100988007E088A007F088200C4240A128A11800027
:10099800840A04087D0603190034FF0A0319FE0AB5
:1009A800C82C80349E3424340C341A3448344034EF
:1009B8009C34003408347E346034123438346E3455
:1009C80064008001840A0406031900340406E52C37
:02400E003AFF77
:00000001FF
