:040000008A11112828
:10000800FE00030E83120313A3000408A4000A08C9
:10001800A5007F08A6008A111F2F8A1113288313B1
:100028006530840077308A15F5248A11A030840061
:10003800B2308A15F5248A11C130FD000C30FE005B
:10004800FD30FF00B23084008A15302583018A1103
:100058002D288A15AC268A11B83083120313B800EC
:100068002230B900033083160313C50045088312F4
:100078000313BA008A114B228A110D308316031319
:10008800C700AF30C600C130C500C50B4928C60B34
:100098004928C70B4928000083120313071B562859
:1000A800871F59288A111D258A11003083120313CE
:1000B800A700A8008A15C9258A11FF3083120313E7
:1000C80086008712103085002C3083160313AC008D
:1000D8000130AD0000308A150C258A1183160313F0
:1000E800C500C601450883120313E70083160313EE
:1000F800460883120313E80001308A150C258A117B
:1001080083160313C500C601450883120313E900CB
:1001180083160313460883120313EA00670983163C
:100128000313C50083120313680983160313C6005B
:10013800C50A0319C60A8312031369088316031331
:10014800450783120313E9006A0803186A0A83162D
:100158000313460783120313EA0004308A15FC25AB
:100168008A11831203132E08EC002D08EB006C088B
:1001780083160313C600831203136B088316031335
:10018800C5000310C60CC50C0310C60CC50C031023
:10019800C60CC50C450883120313A7008316031366
:1001A800460883120313A8000530A9000030AA00EE
:1001B8008A1553258A11831203132808EC0027088F
:1001C800EB00831603133108831203136C06031D17
:1001D800F328831603133008831203136B060319DD
:1001E8000729643083160313C500450883120313D7
:1001F800EE006C0883160313B100831203136B0817
:1002080083160313B00003108312061C0314003076
:1002180003180130F0007008031957297508831670
:100228000313C500C601450883120313A7008316EC
:100238000313460883120313A8006430A900003092
:10024800AA008A1553258A118312031371082707F8
:10025800B8000030031801302807B90002308316AF
:100268000313C700470883120313BA008A114B22ED
:100278008A111530831203137402031C4A291E3095
:10028800740203184A29F201F20A92291E307402F4
:10029800031C6E29023083160313C5004508831218
:1002A8000313F20092296E08031961296C08B9003A
:1002B8006B08B800BA01BA0A6829831203136608E2
:1002C800B9006508B800BA018A114B228A11831255
:1002D8000313F401F201922900306C02C9300319AA
:1002E8006B02031C7F29C830E1000030E2008A114C
:1002F80062238A119F29831203136C08E2006B089A
:10030800E1008A1162238A119F29003083120313A6
:10031800E100E2008A1162238A119F2983120313E4
:100328007208003A03197F29013A03197029033A20
:10033800031989299F2983120313871B071B432A43
:100348000618432A013083160313C5004508831293
:100358000313F507183075060319F5010030A700D7
:10036800A8008A15C9258A118312031375088316F4
:100378000313C500C601450883120313A70083169B
:100388000313460883120313A8006430A900003041
:10039800AA008A1553258A118312031371082707A7
:1003A800B8000030031801302807B900023083165E
:1003B8000313C700470883120313BA008A114B229C
:1003C8008A11063083160313C7001330C600B130F4
:1003D800C500C50BED29C60BED29C70BED29F4297E
:1003E8009F29013083160313C500450883120313A0
:1003F800F1073C3071060319F1010030A700A8008D
:100408008A15C9258A1183120313750883160313E5
:10041800C500C601450883120313A70083160313FA
:10042800460883120313A8006430A9000030AA000C
:100438008A1553258A118312031371082707B800F8
:100448000030031801302807B9000230831603135F
:10045800C700470883120313BA008A114B228A1176
:10046800063083160313C7001330C600B130C50029
:10047800C50B3C2AC60B3C2AC70B3C2A432A8312CD
:100488000313071B871BB128061CF529B1288B12FB
:10049800831203133809BB003909BC00BB0A0319CE
:1004A800BC0A6B083B07A7006C0803186C0A3C07DA
:1004B800A8008A151C258A11831203132808803A7C
:1004C800FF0080307F02031D6B2A043027020318C7
:1004D800732A831203136C08B9006B08B8008312DF
:1004E80003133908B1003808B0006430B200003096
:1004F800B3008A159D258A118312031333088316C6
:100508000313AB0083120313320883160313AA00E4
:1005180083120313310883160313A90083120313EC
:10052800300883160313A8002A0883120313BB009C
:100538003B0883160313A200290883120313B9008A
:1005480083160313280883120313B8003908B1006F
:100558003808B0000A30B2000030B3008A159D2573
:100568008A1183120313330883160313AB00831213
:100578000313320883160313AA00831203133108E6
:1005880083160313A9008312031330088316031379
:10059800A8002A0883120313BB003B088316031321
:1005A800A100280883120313BB003B08831603131A
:1005B800A0004D2B83160313220883120313BB00DC
:1005C8003B0883160313A300210883120313BB00FF
:1005D8003B0883160313A200200883120313BB00F1
:1005E8003B0883160313A1000D3083120313BB00CD
:1005F8003B0883160313A000602B0E308312472B91
:1006080083160313220883120313BB00BC013B08A3
:10061800B0003C08B1000A30B2000030B3008A15BF
:100628009D258A1183120313330883160313AB0025
:1006380083120313320883160313AA0083120313C9
:10064800310883160313A900831203133008831695
:100658000313A8002A0883120313BB003B08831660
:100668000313A300280883120313BB003B08831657
:100678000313A200602B0A3083160313A000A10005
:10068800A20083120313BB003B0883160313A300C5
:10069800602B831203133A08003A0319DE2A013A41
:1006A8000319012B033A0319042B013A0319042BEC
:1006B800073A03193F2B602B8B160800003083166E
:1006C8000313C4000030C3000030C2000030C10072
:1006D80003308A15FC258A11831203132E08E600BD
:1006E8002D08E5006709E3006809E400E30A031937
:1006F800E40A65086307AF0066080318660A64071A
:10070800B0008A153C258A11831203132F08C600EE
:100718003008C7003108C8000030B600C830B7003C
:100728004230B8006A08B0006908AF008A153C2555
:100738008A11831203132F08B3003008B40031085C
:10074800B5008A11DA258A11831203133308C3000E
:100758003408C4003508C5008A114B248A11831255
:1007680003134308D3004408D4004508D5008A1170
:1007780091268A11831203135408E6005308E500F2
:1007880062086602031DCA2B610865020318432C20
:100798006509E3006609E400E30A0319E40A61084D
:1007A800630783160313AE0083120313620803184A
:1007B800620A640783160313AF002C08831203131D
:1007C800A700831603132D0883120313A800A90199
:1007D800AA01831603132E0883120313AB00831692
:1007E80003132F0883120313AC000030AC1BFF3037
:1007F800AD00AE008A156B268A11831203132A08EE
:1008080083160313C40083120313290883160313E2
:10081800C30083120313280883160313C20083122C
:100828000313270883160313C100C41B342C440880
:10083800031D2B2C4308031D2B2C04304202031DDF
:10084800292C00304102031D292C031C342CFF30B5
:1008580083120313A7000330A8008A15C9250800CE
:1008680083160313420883120313A8008316031385
:10087800410883120313A7008A15C9250800003010
:1008880083120313A700A8008A15C925080083123C
:1008980003134308C9004408CA004508CB000310E5
:1008A8004A0D4B0DCC004C08CD004D08031D632CA0
:1008B8000030C3000030C4000030C50008004608FE
:1008C800C9004708CA004808CB0003104A0D4B0D61
:1008D800CC004C08D2005208031D792C0030C3000C
:1008E8000030C4000030C500080052087B3EC90033
:1008F8004908CD074308C9004408CA004508CB0089
:1009080010300310CB0CCA0CC90CFF3E031D852CFC
:100918004908CC004C08D2004608C9004708CA005C
:100928004808CB0010300310CB0CCA0CC90CFF3E92
:10093800031D972C4908CC004C08D2068030C9000A
:100948004908D205C417C717FF30C605FF30C705C9
:100958000030C8050030CE000030CF000030D00095
:100968000730C9004908D100431CC82C4608CE07E7
:10097800470803110318470A031DCF074808031146
:100988000318480A031DD00701300310C50CC40C16
:10099800C30CFF3E031DC92C01300310C60DC70D43
:1009A800C80DFF3E031DD12C0130D102031DB82C08
:1009B8000930C9004908D100431CF02C4608CE076D
:1009C800470803110318470A031DCF0748080311F6
:1009D8000318480A031DD00701300310C50CC40CC6
:1009E800C30CFF3E031DF12C01300310D00CCF0CBB
:1009F800CE0CFF3E031DF92C0130D102031DE02C63
:100A08004E08A7004F08A8005008A9004D08C900C3
:100A18004908AA005208CA004A08AB008A1592275A
:100A2800831203132708C3002808C4002908C50037
:100A3800080083120313C001C00A071B212D871F5A
:100A4800D62D212D0030B800B9000430BD003D0876
:100A5800BA008A114B228A110D3083120313BF008A
:100A6800AF30BE00C130BD00BD0B382DBE0B382DD8
:100A7800BF0B382D000083120313071F8B2D003086
:100A8800B800B900BA018A114B228A110D308312BD
:100A98000313BF00AF30BE00C130BD00BD0B522DE7
:100AA800BE0B522DBF0B522D000003308A15FC25BA
:100AB8008A11831203132E08E8002D08E70067083F
:100AC800BD003D08AC0000308A11F2278A1183125C
:100AD80003136808B9006708B8000330BD003D0873
:100AE800BA008A114B228A111A3083120313BF00ED
:100AF8005E30BE008630BD00BD0B802DBE0B802D44
:100B0800BF0B802D000083120313071B872D871F3F
:100B1800D62D6430B8000030B900BA018A114B22D2
:100B28008A110D3083120313BF00AF30BE00C130ED
:100B3800BD00BD0B9D2DBE0B9D2DBF0B9D2D000037
:100B480003308A15FC258A11831203132E08EA0044
:100B58002D08E9006908BD003D08AC0001308A1184
:100B6800F2278A11831203136A08B9006908B800CA
:100B78000330BD003D08BA008A114B228A111A3091
:100B880083120313BF005E30BE008630BD00BD0B6C
:100B9800CB2DBE0BCB2DBF0BCB2D00008312031327
:100BA800871BD22D400803190800262D8312031332
:100BB8003608B9003708BA003808BB0003103A0DE8
:100BC8003B0DBC003C08C1004108031DF22D00305C
:100BD800B3000030B4000030B50008003308B90095
:100BE8003408BA003508BB0003103A0D3B0DBC00B1
:100BF8003C08C2004208031D082E0030B300003034
:100C0800B4000030B50008000030BE000030BF005E
:100C18000030C00089304207B9003908C1023608DF
:100C2800B9003708BA003808BB0010300310BB0CF5
:100C3800BA0CB90CFF3E031D1A2E3908BC003C083B
:100C4800C2003308B9003408BA003508BB001030B8
:100C58000310BB0CBA0CB90CFF3E031D2C2E39082F
:100C6800BC003C08C2068030B9003908C205B71775
:100C7800FF30B605FF30B7050030B805B417FF30B0
:100C8800B305FF30B4050030B5051830B900390890
:100C9800BD0001300310BE0DBF0DC00DFF3E031D8A
:100CA8004E2E35083802031D5F2E34083702031D07
:100CB8005F2E33083602031C6C2E3308B602340844
:100CC800031C340FB7023508031C350AB8023E145A
:100CD80001300310B60DB70DB80DFF3E031D6D2E84
:100CE8000130BD02031D4D2E3E08A7003F08A80095
:100CF8004008A9004108B9003908AA004208BA000A
:100D08003A08AB008A159227831203132708B30009
:100D18002808B4002908B5000800831203135308F3
:100D2800D7005408D8005508D9000310580D590D9C
:100D3800DA005A08E0006008031DAB2E0030D60028
:100D48000030D5000030D4000030D300080053082C
:100D5800D7005408D8005508D90017300310D90C0B
:100D6800D80CD70CFF3E031DB22E5708DA005A08DC
:100D7800DB00D417FF30D305FF30D4050030D5058C
:100D88005308DC005408DD005508DE00DF018E3012
:100D9800E002E01FED2E6008803A8F3E0318DD2E3A
:100DA8000030D6000030D5000030D4000030D30029
:100DB800080001300310DF0CDE0CDD0CDC0CFF3EFC
:100DC800031DDE2E0130D7005708E0070319082F4E
:100DD800DD2E18306002031C052F0030D6000030CD
:100DE800D5000030D4000030D30008000130D7000F
:100DF8000310DC0DDD0DDE0DDF0DD70BFC2E0130F1
:100E0800E0026008031DFA2E5B080319162FDC099F
:100E1800DD09DE09DF09DC0A0319DD0A0319DE0A28
:100E28000319DF0A5F08D6005E08D5005D08D40004
:100E38005C08D30008008B1A0B1D612F0B111030B2
:100E480085007608A03E840083130008B23E840023
:100E580000088600033076020318512F013073050D
:100E6800A0007008031D3A2F01303B2F00302004EA
:100E7800A10004300310A10DFF3E031D3E2F0130D9
:100E8800A200760A492F0310A20DFF3E031D472F2B
:100E98002208210485008712542F103085008716F8
:100EA8000130A0002008F607043076060319F60181
:100EB8006E080319612F0130EE02831603130C1C10
:100EC8008B2F831203130C1C8B2F0C100130A000E6
:100ED8002008F3073C307306031D882FF301013007
:100EE800A0002008F1070130A0002008F4073C30DA
:100EF8007106031D882FF1010130A0002008F507B5
:100F0800183075060319F50180308F008E018312A1
:100F18002608FF0025088A0024088400230E830081
:100F2800FE0E7E0E090083120313AD01A81FA32F26
:100F3800A709A809A70A0319A80AAD01AD0AAA1F9B
:100F4800AE2FA909AA09A90A0319AA0A0130AB00F8
:100F58002B08AD06AE01AF01270828040319E52FB9
:100F6800AC01AC0AA81BC42F01300310A70DA80DB3
:100F7800FF3E031DB92F0130AB002B08AC07B62F7D
:100F880001300310AE0DAF0DFF3E031DC52F28081D
:100F98002A02031DD12F27082902031CDA2F27084C
:100FA800A9022808031CAA03AA022E140130031060
:100FB800A80CA70CFF3E031DDB2F0130AC02031D5C
:100FC800C42F2D080319ED2FAE09AF09AE0A031976
:100FD800AF0A2F08A8002E08A700080083120313E1
:100FE800AE002C30AD002D08A700A801A80A2E08D5
:060FF8008A1543270800E2
:1019EA0064008001840A0406031900340406F62CF4
:1019FA0080349E3424340C341A34483440349C34B1
:101A0A00003408347E346034123438346E3483122D
:101A1A000313AD002D08AC002C08A700A801A80AE2
:101A2A002E308A153026831203132E0808008312DB
:101A3A000313A81F08002709A9002809AA00A90A50
:101A4A000319AA0A2908A7002A08A80008007E087C
:101A5A008A007F0882002C258A158000840A0408DF
:101A6A007D0603190034FF0A0319FE0A302D83127A
:101A7A0003132F08A7003008A800A9018E30B2006E
:101A8A003208AA00AB018A1592278312031327088A
:101A9A00AF002808B0002908B10008008312031318
:101AAA00AB01AC01271C5F2D2908AB070318AC0A50
:101ABA002A08AC0701300310A90DAA0DFF3E031D29
:101ACA00602D01300310A80CA70CFF3E031D672DE3
:101ADA0027082804031D572D2C08A8002B08A70047
:101AEA00080083120313AA00AB01AC018B132A0866
:101AFA00A900A90DA90DA90D1F082906C73929068C
:101B0A009F002130A900A90B882D831203131F15EA
:101B1A001F198D2D1E08AC00831603131E0883128D
:101B2A000313AB008B172C08A8002B08A70008008A
:101B3A00831203133308A8003208A7003108AA0049
:101B4A003008A9008A1197278A15831203132808D7
:101B5A00B7002708B6003308A8003208A7003108E2
:101B6A00AA003008A9008A15F6268312031328084A
:101B7A00B5002708B4003708B3003608B2003508A4
:101B8A00B1003408B0000800831203132808AA0021
:101B9A002708A9000310AA0CA90C0310AA0CA90C67
:101BAA0029089500AB01270828040319DE2DAB018B
:101BBA00AB0A2B08A90001300310A90CFF3E031D34
:101BCA00E12D291CEC2D831203139716EF2D831296
:101BDA0003139712AC01270828040319F62DAC0148
:101BEA00AC0A2C08031D17160319171208008312D2
:101BFA000313B100B201B301EF0108306F020318F9
:101C0A001A2E31088A1576258A1583120313270896
:101C1A00B2070318B30A2808B3070130AF002F0828
:101C2A00EF0708306F02031C062E3308B000320893
:101C3A00AF000310B00CAF0C0310B00CAF0C0310C4
:101C4A00B00CAF0C2F08B2003008B3003308AE0056
:101C5A003208AD00080083120313AB002B08A90059
:101C6A002908AA00831603178C18372E8312031328
:101C7A002708831203178D00013083120313A80269
:101C8A00280A03190800831603178C18482E7F3078
:101C9A0083120313A9002908831603178C050C1451
:101CAA00831203170C0883120313A9002A0884005D
:101CBA002908831380000130A9002908AA070130E6
:101CCA00A9002908831203178D07412E00308312B9
:101CDA000313B3000030B2000030B1000030B0008E
:101CEA00271C8B2E2B08B0072C0803110318013E62
:101CFA00031DB1072D0803110318013E031DB20786
:101D0A002E0803110318013E031DB3070130AF006B
:101D1A000310AB0DAC0DAD0DAE0DAF0B8D2E01301A
:101D2A000310AA0CA90CA80CA70CFF3E031D952EA4
:101D3A002A08290428042704031D752E3308AA003B
:101D4A003208A9003108A8003008A7000800283086
:101D5A0083160313850001308600C330870083127F
:101D6A0003131F083F3980389F00831603131F1778
:101D7A00831203131F08C73918389F001F148316CC
:101D8A0003139F17F0309F05831203131708F039C6
:101D9A000C389700FF308316031392008312031343
:101DAA0095019712171212158316031381128111C6
:101DBA000108F839063881008312031381018B1652
:101DCA00CF30900590159014101580308F001014A4
:101DDA00831603130C148B170B170C1301130B1216
:101DEA00080083120313AD01AA1F022FA909AA0929
:101DFA00A90A0319AA0AAD01AD0AA81F092FA70942
:101E0A00A809A70A0319A80A270828040319362FBC
:101E1A00AC01AC0AA81B1D2F01300310A70DA80D99
:101E2A00FF3E031D122F0130AB002B08AC070F2F0A
:101E3A0028082A02031D232F27082902031C2B2FF7
:101E4A002708A9022808031CAA03AA0201300310C2
:101E5A00A80CA70CFF3E031D2C2F0130AC02031D5A
:101E6A001D2F2D0803193E2FA909AA09A90A03192A
:101E7A00AA0A2A08A8002908A7000800831203133F
:101E8A00AB002708A9002908AA00831603178C1893
:101E9A004A2F831203132B08FF3E831203178D0068
:101EAA007F3083120313A9002908831603178C05B0
:101EBA00013083120313A802280A031908008316A3
:101ECA0003178C18642F831203132A0884008313C0
:101EDA000008831203178C00013083120313A90030
:101EEA002908AA070130A9002908831203178D07B8
:101EFA008312031303108B1B03148B13831603170C
:101F0A000C1555308D00AA308D008C140C118312DB
:101F1A000313031C5D2F8B175D2F831203132A08EB
:101F2A0003199C2F290828042704031DAF2F00300A
:101F3A00A7000030A8000030A90008000130AC005A
:101F4A002C08AA0701300310A90CA80CA70CFF3E05
:101F5A00031DA82FFE3029050319CA2FA32F01300C
:101F6A00AC002C08AA070130A7070030031801307B
:101F7A00A807003003180130A90701300310A90C83
:101F8A00A80CA70CFF3E031DC32FFF302905031918
:101F9A00D92FB42F0130AA0201300310A70DA80DC2
:101FAA00A90DFF3E031DD22FA81BDF2F02302A02E4
:101FBA000318CF2F2A18E72FFF30A7057F30A8056F
:101FCA00FF30A9050310AA0C2A08AC00AD01AE0126
:101FDA0010300310AC0DAD0DAE0DFF3E031DEE2FFC
:101FEA002C08A7042D08A8042E08A9042B080319F5
:061FFA000800A917080011
:02400E007AFF37
:04420000A600D8003C
:00000001FF
