:060000000A128A11122809
:10000800FE00030EF6000408F7000A08F800831241
:1000180003137F08F9000A128A1180290A128A112B
:100028001528F001F101F201F301F40183132030E6
:1000380084003B300A128A11A7220A128A115F3003
:10004800FD000230FE009A30FF00523084000A1290
:100058008A118D2283010A128A11B9298312031386
:100068004D08C5004C08C400E830C6000330C7007E
:100078000A128A115A220A128A1183120313470894
:10008800AB004608AA004508A9004408A8002A08A9
:10009800CE004E08A3002908CD002808CC004D0842
:1000A800C5004C08C4006430C6000030C7000A12FE
:1000B8008A115A220A128A11831203134708AB00C5
:1000C8004608AA004508A9004408A8002A08CE0046
:1000D8004E08A2002908CD002808CC004D08C5000C
:1000E8004C08C4000A30C6000030C7000A128A1142
:1000F8005A22831203134708AB004608AA00450892
:10010800A9004408A8002A08CE004E08A100280823
:10011800CE004E08A000080083120313C101BC1FC3
:100128009C28BB09BC09BB0A0319BC0AC101C10A46
:10013800BE1FA728BD09BE09BD0A0319BE0A0130A2
:10014800BF003F08C106C201C3013B083C040319B4
:10015800DE28C001C00ABC1BBD2801300310BB0D3E
:10016800BC0DFF3E031DB2280130BF003F08C00789
:10017800AF2801300310C20DC30DFF3E031DBE287A
:100188003C083E02031DCA283B083D02031CD32835
:100198003B08BD023C08031CBE03BE0242140130EA
:1001A8000310BC0CBB0CFF3E031DD4280130C00259
:1001B800031DBD2841080319E628C209C309C20A5C
:1001C8000319C30A4308BC004208BB000800831295
:1001D8000313C101BE1FF728BD09BE09BD0A0319D3
:1001E800BE0AC101C10ABC1FFE28BB09BC09BB0A63
:1001F8000319BC0A3B083C0403192B29C001C00A97
:10020800BC1B122901300310BB0DBC0DFF3E031DA2
:1002180007290130BF003F08C00704293C083E02F7
:10022800031D18293B083D02031C20293B08BD0279
:100238003C08031CBE03BE0201300310BC0CBB0CFF
:10024800FF3E031D21290130C002031D1229410868
:1002580003193329BD09BE09BD0A0319BE0A3E08A0
:10026800BC003D08BB000800283083160313850036
:1002780001308600C3308700831203131F083F39FB
:1002880080389F00831603131F17831203131F0858
:10029800C73918389F001F14831603139F13F030B3
:1002A8009F05831203131708F0390C389700FF30A5
:1002B80083160313920083120313950197121712E2
:1002C800121583160313811281110108F8390638B3
:1002D80081008312031381018B16CF30900590158E
:1002E8009014101580308F001010831603130C1013
:1002F8008B170B170C1308008B1A0B1DAE290B114B
:1003080085017408203E840083130008523E84004F
:10031800000886000330740203189F290130F50095
:10032800740A98290310F50DFF3E031D96297508D8
:1003380085008712A129871685010130F500750807
:10034800F407043074060319F40170080319AE2980
:100358000130F0027908FF0078088A0077088400E5
:10036800760E8300FE0E7E0E09000A128A113821CD
:100378000A128A11003083120313BB00BC000A1250
:100388008A1127220A128A11831603138713071367
:1003980003300A128A11F1210A128A1183120313F7
:1003A8003C08AD003B08AC002D08CD002C08CC0063
:1003B8000A128A1132200A128A110D30831203138D
:1003C800D100AF30D000C130CF00CF0BE929D00B1E
:1003D800E929D10BE9290000CC2983120313C200B3
:1003E8004208BD00BD0DBD0DBD0D1F083D06C73936
:1003F8003D069F001F151F19FF29831603131E08AA
:1004080083120313BD0006300310BD0CFF3E031D0D
:10041800082A1E08BE00BF010310BE0DBF0D031041
:10042800BE0DBF0D3D083E07C00000300318013067
:100438003F07C1004008B6004108B7003708BC00B4
:100448003608BB000800831203133C08BE003B08B3
:10045800BD000310BE0CBD0C0310BE0CBD0C3D0846
:100468009500BF013B083C0403193C2ABF01BF0AA1
:100478003F08BD0001300310BD0CFF3E031D3F2A9D
:100488003D1C4A2A8312031397164D2A831203131D
:100498009712C0013B083C040319542AC001C00A42
:1004A8004008031D171603191712080083120313B7
:1004B8004708BC004608BB004508BE004408BD000C
:1004C8000A128A1190200A128A11831203133C0817
:1004D800CB003B08CA004708BC004608BB004508DB
:1004E800BE004408BD000A128A11EB2083120313D0
:1004F8003C08C9003B08C8004B08C7004A08C600AA
:100508004908C5004808C40008007E088A007F081A
:10051800820089220A128A118000840A04087D0652
:1005280003190034FF0A0319FE0A8D2A80349E3409
:1005380024340C341A34483440349C34003408349D
:100548007E346034123464008001840A040603197E
:0605580000340406A82A8D
:02400E003AFF77
:00000001FF
