:060000000A128A11122809
:10000800FE00030E83120313C8000408C9000A087F
:10001800CA007F08CB000A128A112D280A128A11F9
:10002800152883132030840040300A128A11B52223
:100038000A128A116030FD000230FE00A830FF006D
:10004800533084000A128A119B2283010A128A11F2
:100058007A2A8B1A0B1D5B280B1185013F08203E5D
:10006800840083130008533E840000088600033090
:100078003F0203184C280130C6003F0A45280310E8
:10008800C60DFF3E031D43284608850087124E28EB
:10009800871685010130C6004608BF0704303F06B1
:1000A8000319BF01380803195B280130B802831609
:1000B80003130C1CA228831203130C1CA2280C1077
:1000C800803087060130C6004608BC073C303C0635
:1000D800031D8028BC010130C6004608BB073C3020
:1000E8003B06031D8028BB010130C6004608BE0739
:1000F80018303E060319BE0180308F008E013E087D
:10010800C600C7014608F0004708F1006430F20055
:100118000030F3000A128A1159220A128A11831236
:1001280003133B087007C40000300318013071073F
:10013800C5000A128A11AF200A128A11831203130A
:100148004B08FF004A088A0049088400480E8300CB
:10015800FE0E7E0E0900831203134508FA004408B8
:10016800F900E830FB000330FC000A128A112C2247
:100178000A128A117C0883120313AB007B08AA00B9
:100188007A08A9007908A8002A08FD007D08A300BC
:100198002908C5002808C4004508FA004408F900E1
:1001A8006430FB000030FC000A128A112C220A126B
:1001B8008A117C0883120313AB007B08AA007A0813
:1001C800A9007908A8002A08FD007D08A2002908CE
:1001D800C5002808C4004508FA004408F9000A3098
:1001E800FB000030FC000A128A112C227C088312C2
:1001F8000313AB007B08AA007A08A9007908A800B5
:100208002A08FD007D08A1002808FD007D08A0003F
:100218000800F601F11F1729F009F109F00A03197E
:10022800F10AF601F60AF31F2229F209F309F20A84
:100238000319F30A0130F4007408F606F701F8010F
:100248007008710403195929F501F50AF11B3829B9
:1002580001300310F00DF10DFF3E031D2D29013073
:10026800F4007408F5072A2901300310F70DF80D7A
:10027800FF3E031D392971087302031D45297008C3
:100288007202031C4E297008F2027108031CF30362
:10029800F302771401300310F10CF00CFF3E031D3C
:1002A8004F290130F502031D382976080319612901
:1002B800F709F809F70A0319F80A7808F100770826
:1002C800F0000800F601F31F7029F209F309F20A99
:1002D8000319F30AF601F60AF11F7729F009F10963
:1002E800F00A0319F10A700871040319A429F50129
:1002F800F50AF11B8B2901300310F00DF10DFF3EBB
:10030800031D80290130F4007408F5077D29710860
:100318007302031D912970087202031C9929700841
:10032800F2027108031CF303F30201300310F10C0D
:10033800F00CFF3E031D9A290130F502031D8B299D
:1003480076080319AC29F209F309F20A0319F30A2A
:100358007308F1007208F0000800283083160313B0
:10036800850001308600C3308700831203131F08FD
:100378003F3980389F00831603131F178312031316
:100388001F08C73918389F001F14831603139F13BB
:10039800F0309F05831203131708F0390C389700C3
:1003A800FF308316031392008312031395019712EB
:1003B8001712121583160313811281110108F839D7
:1003C800063881008312031381018B16CF30900504
:1003D80090159014101580308F0010148316031395
:1003E8000C148B170B170C130800831203134D08FA
:1003F800CF004C08CE000310CF0CCE0C0310CF0C4E
:10040800CE0C4E089500D0014C084D0403190E2A55
:10041800D001D00A5008CE0001300310CE0CFF3EA8
:10042800031D112A4E1C1C2A8312031397161F2A18
:10043800831203139712D1014C084D040319262A7D
:10044800D101D10A5108031D171603191712080004
:100458007C08F1007B08F0007A08F3007908F200C4
:100468000A128A110D210A128A11710883120313C4
:10047800C3007008C2007C08F1007B08F0007A080D
:10048800F3007908F2000A128A11662171088312B2
:100498000313C1007008C0004308FC004208FB00B9
:1004A8004108FA004008F9000800F401F501701C41
:1004B800632A7208F4070318F50A7308F507013070
:1004C8000310F20DF30DFF3E031D642A01300310E3
:1004D800F10CF00CFF3E031D6B2A70087104031D1C
:1004E8005B2A7508F1007408F00008000A128A11E6
:1004F800B1210A128A11003083120313CC00CD00F7
:100508000A128A11F9210A128A1183160313871312
:100518000713033083120313D2005208BE00BB0135
:10052800BB0ABC01962A7E088A007F0882009722AF
:100538000A128A118000840A04087D06031900340F
:10054800FF0A0319FE0A9B2A80349E3424340C3493
:100558001A34483440349C34003408347E346034CF
:10056800123464008001840A040603190034040666
:02057800B62AA1
:02400E003AFF77
:00000001FF
